:030000000205D026
:0C05D000787FE4F6D8FD7581AE020617B6
:1002210041542B434C4453454E443D3130004154DD
:100231002B434C4453544152540041542B52535478
:100241000041542B43574D4F44453D310041542B00
:1002510043574A41503D223336307765222C227A6A
:10026100747930303132303031220041542B4349DE
:100271005053544152543D332C22554450222C2288
:10028100636C6F75642E61692D7468696E6B65723C
:100291002E636F6D222C353030312C323436382CB0
:1002A10030005250543A2230786131623233343660
:1002B10037222C2230786166333231323334222CAA
:1002C100223139322E3136382E302E313233222C32
:1002D100226C69676874222C2231323334353661DD
:1002E100220041542B4349504D55583D3100415452
:1002F1002B43495053544152543D342C22554450C0
:10030100222C22636C6F75642E61692D7468696E8D
:100311006B65722E636F6D222C353030312C323487
:1003210036382C300041542B435359534944004132
:10033100542B4357534D41525453544152543D3120
:100341000041542B4C414E535441525400303030F3
:10035100303030303030303030303030303030309C
:10036100303030303030303030303030303030318B
:100371000041542B43495053454E443D342C0041D8
:10038100542B43495053454E443D332C3633004C96
:10039100494748543A313B004C494748543A303B6D
:1003A10000323436392C30002B4353595349443AE7
:1003B10043484950002B4950442C002B434C442CBA
:1003C100002B4950442C342C32363A52504C3A00CE
:0903D1005749464920474F5400EA
:10065C00C107C104013E00C10101250001231001A5
:10066C00260B014E3A014B00C100C10301240020AE
:10067C00406F551E00A000F3C000000054019FA65F
:10068C0000000000000800CC54393A66AA1CB6C51C
:10069C0055000000000000000000000000000000F9
:1006AC00000000000000000000000000000000003E
:1006BC0000000A3F54454D503A3132333B0001297A
:1006CC0000C10502270000C106C108C109014C0088
:0606DC00014D00012201A6
:10002600E4F50AF50BF50CC2B412088F7FE87E03DF
:100036007D007C001207B8209315C291D2B47FC808
:100046007E007D007C001207B8D291C2B4D200C2F5
:1000560001E4F525F54975230B752608754E497596
:1000660022027BFF7A02794212076C7FF47E017DC1
:10007600007C001207B83000147BFF7A0379301237
:10008600076C7FF47E017D007C001207B8C290C227
:1000960091C2B77FF47E017D007C001207B8D29032
:1000A600D291D2B77FF47E017D007C001207B83072
:1000B60008DB7BFF7A02792F12076CC201E4F5494F
:1000C600F52575230C752605754E3A7522047FE8CD
:1000D6007E03FDFC1207B87BFF7A03794212076C98
:1000E6007FF47E017D007C001207B8E4F5087F648A
:1000F6007E007D007C001207B8300A75C20A300BFC
:1001060039E4F5097529087D01AF291206E77B0058
:100116007A00792A12076C7FC87E007D007C001267
:1001260007B87BFF7A037990AD291208040509C345
:10013600E5096480948340CC8037E4F50975290885
:100146007D01AF291206E77B007A00792A12076C37
:100156007FC87E007D007C001207B87BFF7A03799A
:1001660099AD291208040509C3E509648094834002
:10017600CC7F647E007D007C001207B80508C3E5CD
:1001860008648094F850030200F47529097D01AFD4
:10019600291206E77B007A00792A12076C7FD07E47
:1001A600077D007C001207B87B007A00793FAD29F5
:1001B600120804C291D2B47FC87E007D007C001272
:1001C60007B8D291C2B40528E52870020527AE27E4
:1001D600FF7C037DE812051B7E007F64CFCDCFCE6A
:1001E600CCCE12051BEF2430F544AE27AF287C0099
:1001F6007D6412051B7E007F0ACFCDCFCECCCE12FA
:10020600051BEF2430F545AE27AF287C007D0A128A
:0A021600051BED2430F5460200F14F
:0102200022BB
:0406E200C10BC10A7D
:10084C00200133E525C39523502CE525C39526506F
:10085C00158525827583001204EEB5990405258053
:10086C0011E4F525800C0525E599B54E05D201E47A
:10087C00F525E4F54922E525C395234005C201E49D
:03088C00F525222D
:030023000203DAFB
:1003DA00C0E0C083C082C0D075D000C000C001C0D8
:1003EA0002C003C0072098030204BBC2982001413F
:1003FA00E52214601814602114602A1460030204B0
:10040A00BB7BFF7A0379BC12084C0204BB7BFF7AE0
:10041A000379A912084C0204BB7BFF7A0379D11233
:10042A00084C0204BB7BFF7A0379C212084C02040F
:10043A00BB746F2549F8A699E549C3943E50040553
:10044A00498008754900C201754B00E522146049CC
:10045A00146051146052147058E549C3940740510E
:10046A00C20185493E754B00754900C290C291C2CE
:10047A00B7D2047874E6643A703708E6FFB4300AF3
:10048A00C2B3D290C20BD20A8027EF64317022D253
:10049A00B3D20BC290D20A8018E549D394284011EE
:1004AA00D206800DD2088009E549D3940F4002D2C2
:1004BA0009309904C299C202D007D003D002D001F0
:0B04CA00D000D0D0D082D083D0E03230
:10076C008B0D8A0E890FAB0DAA0EA90F1204D5F5AD
:10077C00997401250FF50FE4350EF50E7F017E00FF
:10078C007D007C001208C2AB0DAA0EA90F1204D575
:10079C0070D475990D7F01FEFDFC1208C275990A83
:0B07AC007F017E007D007C001208C26F
:0107B700221F
:020804008D0D58
:100806008B0E8A0F8910E50D6025AB0EAA0FA91075
:100816001204D5F59974012510F510E4350FF50F7E
:100826007F017E007D007C001208C2150D80D7ABCB
:100836000EAA0FA9101204D570F57F017E007D0067
:050846007C001208C255
:01084B00228A
:10088F00C202E4F549F54AE598543F4440F59853C0
:10089F00A23F538EEF438E01438E0475D6FF75D75B
:1008AF00D0438E10D29CD2ACD2AFE4F5B175B2FF6B
:0308BF00F54922D6
:1006E700E4FE7E14782AE4F608DEFCE4FEED700EE4
:1006F700EE90037293FC742A2EF8A604800FBD01B6
:100707000CEE90022193FC742A2EF8A6040EBE0B61
:10071700DCC205EF75F06484FD600C2430FD742A9B
:100727002EF8A6050ED205EF75F06484E5F075F096
:100737000A84FD600E2430FD742A2EF8A6050ED219
:1007470005800A300507742A2EF876300EEF75F00B
:100757000A84E5F02430FF742A2EF8A6070E742ABF
:040767002EF8E4F68E
:01076B00226B
:0808C2008F148E138D128C11AE
:1008CA00E4F515AF15E4FCFDFEAB14AA13A912A8B2
:1008DA0011D31205BF400E00007F167E80DEFEDFB8
:0508EA00FC051580DE95
:0108EF0022E6
:0807B8008F108E0F8D0E8C0DC9
:1007C000E4F514F513F512F511E47F64FEFDFCABBE
:1007D00010AA0FA90EA80D120570AB14AA13A91226
:1007E000A811C31205BF501BE4FAF9F8E51424015F
:1007F000F514EA3513F513E93512F512E83511F55C
:030800001180C69E
:0108030022D2
:1005DC00020026E493A3F8E493A34003F68001F20F
:1005EC0008DFF48029E493A3F85407240CC8C33320
:1005FC00C4540F4420C8834004F456800146F6DFEF
:10060C00E4800B010204081020408090065CE47E1C
:10061C00019360BCA3FF543F30E509541FFEE493E3
:10062C00A360010ECF54C025E060A840B8E493A3AA
:10063C00FAE493A3F8E493A3C8C582C8CAC583CAD5
:10064C00F0A3C8C582C8CAC583CADFE9DEE780BE8D
:0106E6000013
:1004D500BB010689828A83E0225002E722BBFE0225
:0904E500E32289828A83E4932258
:1004EE00BB010CE58229F582E5833AF583E02250C3
:1004FE0006E92582F8E622BBFE06E92582F8E2220D
:0D050E00E58229F582E5833AF583E4932226
:10051B00BC000BBE0029EF8DF084FFADF022E4CCC4
:10052B00F875F008EF2FFFEE33FEEC33FCEE9DEC8D
:10053B00984005FCEE9DFE0FD5F0E9E4CEFD22EDD3
:10054B00F8F5F0EE8420D21CFEADF075F008EF2F1D
:10055B00FFED33FD4007985006D5F0F222C398FD0E
:05056B000FD5F0EA22AB
:10057000E88FF0A4CC8BF0A42CFCE98EF0A42CFC2A
:100580008AF0EDA42CFCEA8EF0A4CDA8F08BF0A4A8
:100590002DCC3825F0FDE98FF0A42CCD35F0FCEB07
:1005A0008EF0A4FEA9F0EB8FF0A4CFC5F02ECD39CC
:0F05B000FEE43CFCEAA42DCE35F0FDE43CFC2239
:1005BF00EB9FF5F0EA9E42F0E99D42F0E89C45F092
:0105CF002209
:00000001FF
